{
  "contractName": "PollContract",
  "abi": [
    {
      "inputs": [
        {
          "internalType": "string",
          "name": "_pollName",
          "type": "string"
        },
        {
          "internalType": "string[]",
          "name": "_options",
          "type": "string[]"
        },
        {
          "internalType": "uint256",
          "name": "_duration",
          "type": "uint256"
        }
      ],
      "payable": false,
      "stateMutability": "nonpayable",
      "type": "constructor"
    },
    {
      "anonymous": false,
      "inputs": [
        {
          "indexed": false,
          "internalType": "address",
          "name": "_address",
          "type": "address"
        },
        {
          "indexed": false,
          "internalType": "string",
          "name": "pollName",
          "type": "string"
        },
        {
          "components": [
            {
              "internalType": "string",
              "name": "name",
              "type": "string"
            },
            {
              "internalType": "uint256",
              "name": "voteCount",
              "type": "uint256"
            }
          ],
          "indexed": false,
          "internalType": "struct PollContract.Option[]",
          "name": "_options",
          "type": "tuple[]"
        }
      ],
      "name": "PollStarted",
      "type": "event"
    },
    {
      "anonymous": false,
      "inputs": [
        {
          "indexed": false,
          "internalType": "address",
          "name": "_address",
          "type": "address"
        }
      ],
      "name": "Voted",
      "type": "event"
    },
    {
      "constant": true,
      "inputs": [],
      "name": "duration",
      "outputs": [
        {
          "internalType": "uint256",
          "name": "",
          "type": "uint256"
        }
      ],
      "payable": false,
      "stateMutability": "view",
      "type": "function"
    },
    {
      "constant": true,
      "inputs": [
        {
          "internalType": "uint256",
          "name": "",
          "type": "uint256"
        }
      ],
      "name": "options",
      "outputs": [
        {
          "internalType": "string",
          "name": "name",
          "type": "string"
        },
        {
          "internalType": "uint256",
          "name": "voteCount",
          "type": "uint256"
        }
      ],
      "payable": false,
      "stateMutability": "view",
      "type": "function"
    },
    {
      "constant": true,
      "inputs": [],
      "name": "owner",
      "outputs": [
        {
          "internalType": "address",
          "name": "",
          "type": "address"
        }
      ],
      "payable": false,
      "stateMutability": "view",
      "type": "function"
    },
    {
      "constant": true,
      "inputs": [],
      "name": "pollName",
      "outputs": [
        {
          "internalType": "string",
          "name": "",
          "type": "string"
        }
      ],
      "payable": false,
      "stateMutability": "view",
      "type": "function"
    },
    {
      "constant": true,
      "inputs": [],
      "name": "startTime",
      "outputs": [
        {
          "internalType": "uint256",
          "name": "",
          "type": "uint256"
        }
      ],
      "payable": false,
      "stateMutability": "view",
      "type": "function"
    },
    {
      "constant": false,
      "inputs": [
        {
          "internalType": "uint256",
          "name": "voteTo",
          "type": "uint256"
        }
      ],
      "name": "vote",
      "outputs": [],
      "payable": false,
      "stateMutability": "nonpayable",
      "type": "function"
    },
    {
      "constant": true,
      "inputs": [],
      "name": "result",
      "outputs": [
        {
          "components": [
            {
              "internalType": "string",
              "name": "name",
              "type": "string"
            },
            {
              "internalType": "uint256",
              "name": "voteCount",
              "type": "uint256"
            }
          ],
          "internalType": "struct PollContract.Option",
          "name": "",
          "type": "tuple"
        }
      ],
      "payable": false,
      "stateMutability": "view",
      "type": "function"
    }
  ],
  "bytecode": "0x60806040523480156200001157600080fd5b5060405162000da638038062000da68339810160408190526200003491620002b1565b8251620000499060019060208601906200012e565b506002819055600080546001600160a01b03191633178155426003555b8251811015620000e657600460405180604001604052808584815181106200008a57fe5b602090810291909101810151825260009181018290528354600181018086559483529181902083518051600290940290910192620000cc92849201906200012e565b506020919091015160019182015591909101905062000066565b507f8ba81ffe3785c3e76b58bef18089c71dbe7e26e2d4df542446d5b88296ba39f2308460046040516200011d93929190620004fa565b60405180910390a150505062000650565b828054600181600116156101000203166002900490600052602060002090601f016020900481019282601f106200017157805160ff1916838001178555620001a1565b82800160010185558215620001a1579182015b82811115620001a157825182559160200191906001019062000184565b50620001af929150620001b3565b5090565b620001d091905b80821115620001af5760008155600101620001ba565b90565b600082601f830112620001e557600080fd5b8151620001fc620001f68262000564565b6200053d565b81815260209384019390925082018360005b838110156200023e578151860162000227888262000248565b84525060209283019291909101906001016200020e565b5050505092915050565b600082601f8301126200025a57600080fd5b81516200026b620001f68262000585565b915080825260208301602083018583830111156200028857600080fd5b62000295838284620005e2565b50505092915050565b8051620002ab8162000636565b92915050565b600080600060608486031215620002c757600080fd5b83516001600160401b03811115620002de57600080fd5b620002ec8682870162000248565b93505060208401516001600160401b038111156200030957600080fd5b6200031786828701620001d3565b92505060406200032a868287016200029e565b9150509250925092565b6000620003428383620004a9565b9392505050565b6200035481620005d0565b82525050565b60006200036782620005b9565b620003738185620005c7565b9350836020820285016200038785620005ad565b8060005b85811015620003c657848403895281620003a6858262000334565b9450620003b383620005c1565b60209a909a01999250506001016200038b565b5091979650505050505050565b6000620003e082620005bd565b620003ec8185620005c7565b9350620003fe818560208601620005e2565b62000409816200062c565b9093019392505050565b6000815460018116600081146200043357600181146200045c57620004a1565b607f6002830416620004468187620005c7565b60ff1984168152955050602085019250620004a1565b600282046200046c8187620005c7565b95506200047985620005ad565b60005b828110156200049a578154888201526001909101906020016200047c565b8701945050505b505092915050565b604080835260009083018183620004c1838262000413565b92505060018401549050620004d68162000615565b620004e56020870182620004ef565b5090949350505050565b6200035481620001d0565b606081016200050a828662000349565b81810360208301526200051e8185620003d3565b905081810360408301526200053481846200035a565b95945050505050565b6040518181016001600160401b03811182821017156200055c57600080fd5b604052919050565b60006001600160401b038211156200057b57600080fd5b5060209081020190565b60006001600160401b038211156200059c57600080fd5b506020601f91909101601f19160190565b60009081526020902090565b5490565b5190565b60020190565b90815260200190565b60006001600160a01b038216620002ab565b60005b83811015620005ff578181015183820152602001620005e5565b838111156200060f576000848401525b50505050565b6000620002ab6200062683620001d0565b620001d0565b601f01601f191690565b6200064181620001d0565b81146200064d57600080fd5b50565b61074680620006606000396000f3fe608060405234801561001057600080fd5b506004361061007d5760003560e01c8063409e22051161005b578063409e2205146100ca57806365372147146100eb57806378e97925146101005780638da5cb5b146101085761007d565b80630121b93f146100825780630fb5a6b41461009757806318769765146100b5575b600080fd5b6100956100903660046104c3565b61011d565b005b61009f61020e565b6040516100ac9190610672565b60405180910390f35b6100bd610214565b6040516100ac9190610609565b6100dd6100d83660046104c3565b6102a1565b6040516100ac929190610621565b6100f3610354565b6040516100ac9190610661565b61009f610483565b610110610489565b6040516100ac91906105ed565b3360009081526005602052604090206001015460ff16156101595760405162461bcd60e51b815260040161015090610651565b60405180910390fd5b600254620151800260035401421115801561017657506003544210155b6101925760405162461bcd60e51b815260040161015090610641565b6004818154811061019f57fe5b60009182526020808320600160029093020182018054830190553380845260059091526040928390208201805460ff191690921790915590517f16a9aa39af49f169911e977347975198c503525f7240d6892a626f0227642fce91610203916105fb565b60405180910390a150565b60025481565b60018054604080516020600284861615610100026000190190941693909304601f810184900484028201840190925281815292918301828280156102995780601f1061026e57610100808354040283529160200191610299565b820191906000526020600020905b81548152906001019060200180831161027c57829003601f168201915b505050505081565b600481815481106102ae57fe5b60009182526020918290206002918202018054604080516001831615610100026000190190921693909304601f8101859004850282018501909352828152909350918391908301828280156103445780601f1061031957610100808354040283529160200191610344565b820191906000526020600020905b81548152906001019060200180831161032757829003601f168201915b5050505050908060010154905082565b61035c610498565b600080805b6004548110156103be57826004828154811061037957fe5b90600052602060002090600202016001015411156103b6576004818154811061039e57fe5b90600052602060002090600202016001015492508091505b600101610361565b50600481815481106103cc57fe5b60009182526020918290206040805160029384029092018054600181161561010002600019011693909304601f810185900490940282016060908101825290820184815291938492918491908401828280156104695780601f1061043e57610100808354040283529160200191610469565b820191906000526020600020905b81548152906001019060200180831161044c57829003601f168201915b505050505081526020016001820154815250509250505090565b60035481565b6000546001600160a01b031681565b604051806040016040528060608152602001600081525090565b80356104bd816106ec565b92915050565b6000602082840312156104d557600080fd5b60006104e184846104b2565b949350505050565b6104f2816106a1565b82525050565b6104f28161068d565b600061050c82610680565b6105168185610684565b93506105268185602086016106b2565b61052f816106e2565b9093019392505050565b6000610546602283610684565b7f5468697320506f6c6c2068617320656e646564206f72206e6f74207374617274815261195960f21b602082015260400192915050565b600061058a601683610684565b75155cd95c881a185cc8185b1c9958591e481d9bdd195960521b815260200192915050565b80516040808452600091908401906105c78282610501565b91505060208301516105dc60208601826105e4565b509392505050565b6104f28161069e565b602081016104bd82846104f8565b602081016104bd82846104e9565b6020808252810161061a8184610501565b9392505050565b604080825281016106328185610501565b905061061a60208301846105e4565b602080825281016104bd81610539565b602080825281016104bd8161057d565b6020808252810161061a81846105af565b602081016104bd82846105e4565b5190565b90815260200190565b60006001600160a01b0382166104bd565b90565b60006104bd8260006104bd8261068d565b60005b838110156106cd5781810151838201526020016106b5565b838111156106dc576000848401525b50505050565b601f01601f191690565b6106f58161069e565b811461070057600080fd5b5056fea365627a7a7231582012a9a4fa5b324cbc1290b48971954651dbb16506ebe74b4910d3cccf1d1e958e6c6578706572696d656e74616cf564736f6c63430005100040",
  "source": "pragma solidity >= 0.4.0 < 0.7.0;\npragma experimental ABIEncoderV2;\n\n/**\n * @title PollContract\n * @notice Following is the PollContract which is used to set up a single choice Poll.\n *          The owner of Contract initializes the Poll with PollName and options and duration in days for which poll is active.\n *          A user can vote once to one option in the duration when the poll is active.\n */\ncontract PollContract {\n    /**\n     * @dev owner is the owner of contract, the one who deploys the contract.\n     */\n    address public owner;\n\n    /**\n     * @dev pollName is name of Poll. For example, \"What is your favorite sport ?\" is pollName.\n     */\n    string public pollName;\n\n    /**\n     * @dev duration is the duration for which poll is active. It is represented in days.\n     */\n    uint256 public duration;\n\n    /**\n     * @dev startTime is the time when contract is deployed.\n     */\n    uint256 public startTime;\n\n    /**\n     * @dev struct Voter stores to whom voter Voted and if the user voted.\n     */\n    struct Voter {\n        uint256 votedTo;\n        bool voted;\n    }\n\n    /**\n     * @dev struct Option stores number of votes received and name of Vote.\n     */\n    struct Option {\n        string name;\n        uint256 voteCount;\n    }\n\n    /**\n     * @dev Array to store options in poll.\n     */\n    Option[] public options;\n\n    /**\n     * @dev Mapping to map details of Voter to address.\n     */\n    mapping(address => Voter) voter;\n\n    /**\n     * @notice Following event is emmited whenever user votes.\n     */\n    event Voted(address _address);\n\n    /**\n     * @notice Following Event is emmited whenever new Poll is started.\n     */\n    event PollStarted(address _address, string pollName, Option[] _options);\n\n    /**\n     * @notice Constructor initializes the contract with _pollName, _options and duration.\n     * @param _pollName is the name of Poll and it is a string. For example, \"What is your favourite colour\".\n     * @param _options is an array of strings which contains options for poll.\n     * @param _duration is the number of days for which poll will be active.\n     *\n     * @dev Example for deploying contract :\n     *      _pollName: \"What is your favorite colour ?\",\n     *      _options: [\"Red\", \"Blue\", \"black\", \"Green\"],\n     *      _duration: 1  (poll will be active for 1 day).\n     */\n    constructor(\n        string memory _pollName,\n        string[] memory _options,\n        uint256 _duration\n    ) public {\n        pollName = _pollName;\n        duration = _duration;\n        owner = msg.sender;\n\n        startTime = now;\n\n        for (uint256 i = 0; i < _options.length; i++) {\n            options.push(Option({name: _options[i], voteCount: 0}));\n        }\n        emit PollStarted(address(this), _pollName, options);\n    }\n\n    /**\n     * @dev modifier to restrict onlyOwner to call a function.\n     */\n    modifier onlyOwner(address _address) {\n        require(_address == owner);\n        _;\n    }\n\n    /**\n     * @dev modifier to restrict user to invoke function while poll is in active.\n     */\n    modifier pollActive() {\n        require(\n            now <= startTime + (duration * 1 days) && now >= startTime,\n            \"This Poll has ended or not started\"\n        );\n        _;\n    }\n\n    /**\n     * @dev modifier to prevent user from voting more than once.\n     */\n    modifier didVote() {\n        require(voter[msg.sender].voted == false, \"User has already voted\");\n        _;\n    }\n\n    /**\n     * @notice function for user to cast a vote. A user can cast vote only once while poll is active.\n     * @param voteTo index of option to which user wants to cast vote.\n     *\n     * @notice Note that indexing starts from zero.\n     */\n    function vote(uint256 voteTo) public didVote pollActive {\n        options[voteTo].voteCount++;\n        voter[msg.sender].voted = true;\n\n        emit Voted(msg.sender);\n    }\n\n    /**\n     * @notice Function to calculate option with maximum vote.\n     * @return Option with maximum votes.\n     */\n    function result() public view returns (Option memory) {\n        uint256 maxVote = 0;\n        uint256 index = 0;\n        for (uint256 i = 0; i < options.length; i++) {\n            if (options[i].voteCount > maxVote) {\n                maxVote = options[i].voteCount;\n                index = i;\n            }\n        }\n\n        return (options[index]);\n    }\n}\n\n/**\n * @title ProposePoll\n * @notice Following is the Factory Contract for PollContract. It deploys new PollContract\n *          and store there addresses.\n */\ncontract ProposePoll {\n    /**\n     * @dev All PollContract instances deployed from this contract are stored here.\n     */\n    PollContract[] public allPolls;\n\n    /**\n     * @dev This variable keep counts of number of instances of PollContract deployed from this contract.\n     */\n    uint256 contractCount;\n\n    /**\n     * @notice This mapping between address and array of PollContract can be used by user to get address of instances created\n     *          by him.\n     */\n    mapping(address => PollContract[]) polls;\n\n    constructor() public {\n        contractCount = 0;\n    }\n\n    /**\n     * @notice This is the funtion where a user can create an instance of PollContract.\n     * @param pollName is the name of Poll and it is a string. For example, \"What is your favourite colour\".\n     * @param options is an array of strings which contains options for poll.\n     * @param duration is the number of days for which poll will be active.\n     *\n     * @dev Example for deploying contract :\n     *      pollName: \"What is your favorite colour ?\",\n     *      options: [\"Red\", \"Blue\", \"black\", \"Green\"],\n     *      duration: 1  (poll will be active for 1 day).\n     *\n     * @return instance of PollContract.\n     */\n    function addNewPoll(\n        string memory pollName,\n        string[] memory options,\n        uint256 duration\n    ) public returns (PollContract) {\n        PollContract pollContract = new PollContract(\n            pollName,\n            options,\n            duration\n        );\n\n        polls[msg.sender].push(pollContract);\n        allPolls.push(pollContract);\n        contractCount++;\n\n        return (pollContract);\n    }\n\n    /**\n     * @notice Function to return Polls propesed by msg.sender. Using this fumction, user gets\n     *          an array of instances deployed by him.\n     */\n    function getUserPolls() public view returns (PollContract[] memory) {\n        return (polls[msg.sender]);\n    }\n}\n",
  "sourcePath": "/home/abhi/Projects/votingDapp/contracts/voting.sol",
  "compiler": {
    "name": "solc",
    "version": "0.5.16+commit.9c3226ce.Emscripten.clang"
  },
  "schemaVersion": "3.0.22",
  "updatedAt": "2020-08-28T15:44:13.357Z",
  "devdoc": {
    "methods": {
      "constructor": {
        "details": "Example for deploying contract :     _pollName: \"What is your favorite colour ?\",     _options: [\"Red\", \"Blue\", \"black\", \"Green\"],     _duration: 1  (poll will be active for 1 day).",
        "params": {
          "_duration": "is the number of days for which poll will be active.",
          "_options": "is an array of strings which contains options for poll.",
          "_pollName": "is the name of Poll and it is a string. For example, \"What is your favourite colour\"."
        }
      },
      "result()": {
        "return": "Option with maximum votes."
      },
      "vote(uint256)": {
        "params": {
          "voteTo": "index of option to which user wants to cast vote."
        }
      }
    },
    "title": "PollContract"
  },
  "userdoc": {
    "methods": {
      "constructor": "Constructor initializes the contract with _pollName, _options and duration.",
      "result()": {
        "notice": "Function to calculate option with maximum vote."
      },
      "vote(uint256)": {
        "notice": "function for user to cast a vote. A user can cast vote only once while poll is active.Note that indexing starts from zero."
      }
    },
    "notice": "Following is the PollContract which is used to set up a single choice Poll.         The owner of Contract initializes the Poll with PollName and options and duration in days for which poll is active.         A user can vote once to one option in the duration when the poll is active."
  }
}